:020000040800F2
:1000000000200020CD290008112800081928000828
:1000100000000000000000000000000000000000E0
:10002000000000000000000000000000212800087F
:1000300000000000000000002B2800083528000800
:100040001D2A0008000000001D2A00081D2A0008C3
:100050001D2A00081D2A00081D2A00081D2A000864
:10006000000000001D2A00081D2A00081D2A0008A3
:100070001D2A00081D2A00081D2A00080000000093
:100080001D2A000800000000000000001D2A0008D2
:10009000000000001D2A00081D2A00081D2A000873
:1000A0001D2A00081D2A00081D2A00081D2A000814
:0800B0001D2A000800000000F9
:1000B80010B5064C2378002B07D1054B002B02D036
:1000C800044800E000BF0123237010BDE0010020B8
:1000D80000000000FC880008044B10B5002B03D07A
:1000E8000349044800E000BF10BDC04600000000FE
:1000F800E4010020FC8800080023C25C0133002AC8
:10010800FBD1581E7047000002B4714649084900E7
:10011800095C49008E4402BC7047C04603B471466E
:10012800490840004900095E49008E4403BC7047F5
:10013800002243088B4274D303098B425FD3030A1E
:100148008B4244D3030B8B4228D3030C8B420DD331
:10015800FF22090212BA030C8B4202D312120902BF
:1001680065D0030B8B4219D300E0090AC30B8B42FD
:1001780001D3CB03C01A5241830B8B4201D38B03AB
:10018800C01A5241430B8B4201D34B03C01A524150
:10019800030B8B4201D30B03C01A5241C30A8B4293
:1001A80001D3CB02C01A5241830A8B4201D38B027E
:1001B800C01A5241430A8B4201D34B02C01A524122
:1001C800030A8B4201D30B02C01A5241CDD2C30994
:1001D8008B4201D3CB01C01A524183098B4201D310
:1001E8008B01C01A524143098B4201D34B01C01AFB
:1001F800524103098B4201D30B01C01A5241C30873
:100208008B4201D3CB00C01A524183088B4201D3E1
:100218008B00C01A524143088B4201D34B00C01ACD
:100228005241411A00D20146524110467047FFE739
:1002380001B5002000F0F0F802BDC0460029F7D053
:1002480076E7704703460B437FD4002243088B426E
:1002580074D303098B425FD3030A8B4244D3030B45
:100268008B4228D3030C8B420DD3FF22090212BA0A
:10027800030C8B4202D31212090265D0030B8B4286
:1002880019D300E0090AC30B8B4201D3CB03C01A70
:100298005241830B8B4201D38B03C01A5241430B4B
:1002A8008B4201D34B03C01A5241030B8B4201D33B
:1002B8000B03C01A5241C30A8B4201D3CB02C01AA6
:1002C8005241830A8B4201D38B02C01A5241430A1E
:1002D8008B4201D34B02C01A5241030A8B4201D30D
:1002E8000B02C01A5241CDD2C3098B4201D3CB01B4
:1002F800C01A524183098B4201D38B01C01A524163
:1003080043098B4201D34B01C01A524103098B4266
:1003180001D30B01C01A5241C3088B4201D3CB0051
:10032800C01A524183088B4201D38B00C01A524134
:1003380043088B4201D34B00C01A5241411A00D2E4
:1003480001465241104670475DE0CA0F00D049424D
:10035800031000D34042534000229C4603098B42BD
:100368002DD3030A8B4212D3FC22890112BA030A45
:100378008B420CD3890192118B4208D389019211C7
:100388008B4204D389013AD0921100E08909C3094C
:100398008B4201D3CB01C01A524183098B4201D34E
:1003A8008B01C01A524143098B4201D34B01C01A39
:1003B800524103098B4201D30B01C01A5241C308B1
:1003C8008B4201D3CB00C01A524183088B4201D320
:1003D8008B00C01A5241D9D243088B4201D34B003B
:1003E800C01A5241411A00D20146634652415B107D
:1003F800104601D34042002B00D54942704763465E
:100408005B1000D3404201B5002000F005F802BDA2
:100418000029F8D016E770477047C0468446100098
:1004280062468C461900634600E0C0461FB500F0DE
:1004380069FF002801D40021C8421FBD10B500F093
:10044800A9FE4042013010BD10B500F05BFF002846
:1004580001DB002010BD012010BDC04610B500F022
:1004680051FF002801DD002010BD012010BDC0464D
:1004780010B500F0D3FE002801DC002010BD0120DB
:1004880010BDC04610B500F0C9FE002801DA0020F2
:1004980010BD012010BDC046F0B557464E46454632
:1004A800DE46E0B583B0009001910C034F00CE0FFB
:1004B800610A009C1D03640F0C430099009201938C
:1004C800C80059004B0D9946009A019B6D0AD90F37
:1004D800530F2B439A46009B7F0DDA0094464A46F9
:1004E800B046BA1A8E4200D1B0E0002A00DC78E0AB
:1004F8004946002900D1E9E0C9498F4200D195E178
:100508000125382A16DC8021534609040B439A46F4
:100518001F2A00DDE7E1202155468B1A61469D40E0
:10052800D1400D43614699404B1E99415346D340F3
:100538000D43E41A451BA84280414042241A230275
:1005480000D40FE16402640A002C00D139E12000D4
:1005580001F05EFE0300083B20212800CA1AD040A3
:100568009C4002009D4022439F4200DD73E1D81B5E
:100578000130091A2C008D40C4406B1E9D411300A8
:10058800C2408B402543002714001D436B0709D048
:100598000F232B40042B05D02B1DAB42AD416D42E0
:1005A80064191D00230200D42DE19D4A01379742AA
:1005B80000D1D3E046469B49ED0821404A072A432B
:1005C8007C054D022D0B640D24052C43F60734439E
:1005D8001000210003B0F0BCBB46B246A946A046B5
:1005E800F0BD002A00D184E04A46D21B002F00D07B
:1005F8006DE12500054300D127E1561E012A00D1EF
:100608003BE2874DAA4200D16AE20125382E12DC6E
:1006180032001F2A00DDF8E120262500B61A07005F
:100628005346B040D440B540D740461EB0411B1B8E
:100638009A463D4305436246551BAC459241534695
:1006480052420E004F4688469C1A78E7002A00DC82
:100658008EE04946002975D161465346194300D1B9
:10066800F6E0511E012A00D191E16D4DAA4200D158
:10067800DCE00125382914DC0A001F2A00DDA2E18C
:1006880020215346891A8B401D006346D3401D43E1
:1006980063468B4019004B1E99415346D3400D4386
:1006A800E4182D188542804140422418230259D568
:1006B8005B4B01379F4251D001215A4B6A081C40BD
:1006C80029400A43E507154364085FE76146534636
:1006D800194300D1BCE0511E012A00D164E1504DFC
:1006E800AA4200D16AE10125382900DD22E70A0083
:1006F8000EE74D4A7D1C154200D0D0E02500624629
:10070800534605431A43002F00D037E1002D00D18E
:10071800A8E1002A00D16AE16346C51A5346E21AE5
:10072800A8429B415B42D31A1A0200D403E26346F3
:100738001D1AAC459241534652421C1B0E00884676
:10074800A41A23E736498F4270D00125382AA8DC3D
:100758008021534609040B439A468EE73C00002546
:10076800002231E707232B40002B00D010E793E04D
:10077800002A74D04A46D21B002F00D1C7E028496E
:10078800894500D185E10125382A12DC8021090438
:100798000C431F2A00DDABE120212500891A070040
:1007A80088408D40D740411E8841D4403D43054391
:1007B800A2446544654592415242524414004F4652
:1007C80074E7280001F024FD030018331F2B00DC18
:1007D800C2E62A00083882409F4200DDA9E0DB1B00
:1007E800581C1F2800DCACE115001F3BDD40202809
:1007F80005D040231B1A9A40531E9A4115430723DC
:1008080000272B40B0E7ED08054B62072A43E408B0
:100818009F420FD02403250B7C05640DD4E6C04607
:10082800FF070000FFFF7FFFFE070000C008620708
:100838000243E4081300234300D186E180252D03F9
:1008480025432D03C34C2D0BBEE6604654460E00CF
:100858001700C508D8E7C04CFF1A144096E6BF4AEF
:10086800791C11426BD122000243002F00D0DBE03B
:10087800002A00D12DE1624653461A4300D1B6E062
:100888006346C518854280415444404224182302D7
:1008980002D50F00B04B1C403A002800D8E762464A
:1008A800851AA8429241534652429146E31A1A00C9
:1008B8004B46D21A130091461A0254D44A464C4663
:1008C8002A4300D040E60026002400257CE6A14DFE
:1008D800A94500D190E00125382A00DDABE6802546
:1008E8002D042C4395E6110055462039CD40A946E4
:1008F800202A06D0402153468A1A934062461A435A
:10090800944665466B1E9D414B461D4312E62100E9
:10091800014300D1C4E0511E012A00D1FBE08D4DF6
:10092800AA4200D1B5E00125382900DD41E70A00D7
:100938002FE7894CFF1A14406207E4086AE7854AE2
:10094800914200D1E3E06346C2188242804123000D
:10095800404253441B18DD075C080723520815431F
:100968000F002B4000E763461D1AAC4592415346E1
:1009780052421C1B0E008846A41AE5E5002D00D043
:1009880091E0002A38D180240026240356E76346E4
:10099800C518854280415444404224180127230247
:1009A80000D4DFE6022787E66346C51AA8428041DD
:1009B80053464042E41A0127241AC0E56207C008DA
:1009C8000243E40836E7110053462039CB409946E4
:1009D800202A06D0402153468A1A934062461A4379
:1009E800944665466B1E9D414B461D4359E662077A
:1009F800C0080243E4080DE753465A076346D8087F
:100A080053460E000243DC0814E715002600203D7B
:100A1800EE40202A03D04025AA1A94402043421EC3
:100A280090410500354306E6002A7CD062465346CD
:100A3800C0081A4300D1FAE6620710438022E4088E
:100A48001203144208D0D908114205D16346D808C8
:100A580053460C005B071843420FC000C0085207FA
:100A68000243E7E6002A00D12DE76346D80853463B
:100A78005A070E000243DC08CCE663461D1AAC4553
:100A88009241534652421C1B0E008846A41A013755
:100A980055E56346D90853465A070A43DC08C9E6B0
:100AA80060465446D4E6C008002A00D1BFE6620773
:100AB80010438022E40812031442CDD0DD08154209
:100AC800CAD16346D80853465B070E002C0018436A
:100AD800C2E76346D90853465A070A43DC0899E631
:100AE8006346D80853465A070E000243DC08A1E6BD
:100AF800110027002039CF40202A03D040218A1A2C
:100B080094402043421E904105003D4351E60C00AD
:100B18000025002258E56044604592415444524201
:100B28000500A4183AE753465A076346D9085346BE
:100B38000A43DC087EE61A001C002A4300D0ABE614
:100B4800C1E620210025091A19E500220025014CDB
:100B58003AE5C046FF070000FFFF7FFFFE070000E1
:100B6800F0B5DE46454657464E46E0B587B000929A
:100B780001930B031B0B9B46CA0F4B0004008046D6
:100B88005B0D029200D16AE1D44A934200D18CE114
:100B98005946420FC9000A43802109041143C20083
:100BA8009046CF4A894692469A44002300240393EC
:100BB800009E019F3B031B0B9B467B0030005B0D97
:100BC800FD0F002B00D128E1C44A934200D177E100
:100BD8005946720FC9000A438021090411438B4604
:100BE800BF49F2008C4651466344CB1A9A4600230B
:100BF800029E6E400F2C27D8BA49A40009598F4687
:100C0800CB464246029E039B022B16D0032B00D1F3
:100C1800A6E2012B00D0DFE000220023002490464A
:100C28001B052343F60733434046190007B0F0BCC1
:100C3800BB46B246A946A046F0BD00220024904615
:100C4800A64BEDE72E00DFE7CB4500D2D4E100D17B
:100C5800CFE101235B429C46444648460027E244D4
:100C68005B46150E1B021D43190C2B04120200953E
:100C78001D0C914602910395FFF7E0FA02006A43C2
:100C88000B04210C804619438A4209D9009D01238F
:100C9800AC465B4261449C46E0448D4200D8FBE18F
:100CA800881A0299FFF7CAFA039A240442430904EE
:100CB800240C03000C43A24206D90099013B8C4640
:100CC8006444A14200D8E1E1A01A424612041A4342
:100CD80093464B4659461B0C1D0004930B0449468A
:100CE8000904090C0C001B0C5C43120C6B4388466E
:100CF80051436A43250CAC465B186344994203D9B7
:100D0800802149028C466244190C24041B04240CDB
:100D18008A181C19904202D316D1A74214D25B46F6
:100D2800009D013B4F4405934F459B41AC465B42B8
:100D38006344C018854200D3A1E1824200D9F6E19C
:100D480000D1F1E1059B9B463C1BA742BF41009D9A
:100D5800801A7F42C01B854200D1D0E10299FFF77B
:100D68006DFA039A0B044243210C070019438A4287
:100D780000D978E1881A0299FFF760FA039A2404E7
:100D880042430904240C03000C43A24200D95DE14C
:100D98004146A41A3A041A43049D13041B0C5943F0
:100DA80047466B439C46100C47430B0CBC446344BA
:100DB80068439F4203D980256D02AC4660441F0CEE
:100DC80009041B04090C3F185B18BC4200D202E15D
:100DD80000D1FDE001231A43434B5344002B00DCB0
:100DE800AEE0510700D098E15946C90106D55946E9
:100DF8003E4B194080238B46DB0053443C498B42D1
:100E080000DD1AE75946D208490711435A465B05DF
:100E180054028846240B5B0D02E75A46009B1A438E
:100E280000D17EE05B46002B00D100E1584601F07E
:100E3800EFF9020003000B3A1D27009EBA1A1900A9
:100E48005846D64008398840320002439346009AF3
:100E58008A40284953448A469A440023C8E65B4698
:100E68000343994656D05B46002B00D1CDE0584647
:100E780001F0CEF90B235B429C460200844466468F
:100E88001D239B1B260011005846DE400839884068
:100E980033000343994623008B409846164B0024A1
:100EA8009B1A9A460023039382E65A4602439146C8
:100EB8002AD100229A46022390460824039377E613
:100EC8005A46009B1A430D4B9C46E244002A17D110
:100ED80002231C4300239B46023389E6FF070000D8
:100EE80001FCFFFF28890008FF030000FFFFFFFE49
:100EF800FE070000F30300000DFCFFFF01F8FFFFF1
:100F0800032332001C4373E69A460323D9460C2474
:100F180003934DE6002398469A460133042403932D
:100F280046E601231C4300239B46013360E6002369
:100F3800802498460026924B240371E601225242EF
:100F48000121C91A382900DD66E61F2900DCABE05B
:100F58001F204042C31A5846D8400300202904D015
:100F680058468849514488400243511E8A411A43D1
:100F7800072319000024114013420CD00F231340FB
:100F8800042B00D1F9E0111D91429B410A005B42FC
:100F980059075B021C0BD2080A43904600233FE620
:100FA80080244B462403234209D05B46234206D1C2
:100FB8001C4324032E009046714B240B30E68024FA
:100FC8004B4624031C432403029E6D4B240B27E647
:100FD800002B00D100E70098511E844664448442E7
:100FE80000D284E0BC4200D2AEE000D1C1E00A00E9
:100FF800F0E6424500D92CE64B46DC075808434644
:101008005B081C434346DF072AE601F001F9152374
:101018009C4684440200634620321C2B00DC2EE7E9
:1010280023000838834099460023984636E701F0A4
:10103800EFF802000300153220331C2A00DCFBE61F
:1010480000990838814000228B4602E70099013B4D
:101058008C466444A14200D99AE6A24200D897E699
:10106800831E644494E6AC466144013F8D4200D936
:1010780080E68A4200D87DE6871E61447AE685428A
:1010880000D05FE6B94500D95CE656E6A24200D832
:101098001AE6831E644417E68A4200D800E6AC4686
:1010A800831E98466144FBE537481400504482404B
:1010B8005B4617008340CC407A1E974123433B434D
:1010C8001A005B46CB40510709D00F211140042973
:1010D80005D0111D9142924152429B180A001902F3
:1010E80000D455E7002201230024904698E50A0021
:1010F800BC4200D06EE64B4500D06BE66CE6234B55
:10110800234A5344924500DA18E7012149420A1D4F
:101118008A42894149428B4466E60F2111400429DD
:1011280000D161E61100F2E7BC4200D80AE60223CA
:101138005B429C4600994F444F459B41E3448C4693
:101148005B426344C018FFE54946009D4800484596
:101158008941AC46494261448146023A6418C7E76E
:1011680080245B4624031C4324039046044B240B31
:1011780056E59945E8D30A00BDE7002308E7C046CD
:10118800FF0700003E0400001E040000FF030000EB
:1011980002FCFFFFF0B55746DE464E464546E0B531
:1011A8000D000400E80F83460903D80F090B824697
:1011B80019488C461F0369005E00490D3F0B760DE8
:1011C800814218D086420FD00120B1420DD1BC45D2
:1011D8000BD1944209D1D3451CD0002905D16046D2
:1011E8002043431E984100E00120F0BCBB46B246B4
:1011F800A946A046F0BD01208E42F6D1614639438A
:101208000F0017432743F0D15B465246981A431EF6
:101218009841EAE70020E8E7FF070000F0B55746E5
:101228004E464546DE46E0B50D000F03390B83B048
:101238000400804601915800E90F314F400D8C465B
:101248006E00190382469146760D090BD80FBE42EF
:101258001FD0BA450FD0002E2FD15546019E3443DA
:10126800002D27D10A433AD0002C45D100281AD1A5
:101278000120404217E011433BD1002E02D1019FCB
:101288002743F3D0844509D16346002BF0D060464C
:1012980009E0019F27432CD1B24524D063460220A0
:1012A800013B1840013803B0F0BCBB46B246A94622
:1012B800A046F0BD002CD9D0E4E75446002CEDD070
:1012C8008445EBD15645E9DCDEDB019B8B42E5D852
:1012D800DAD1C845E2D80020C845E4D2D4E70020D6
:1012E800002CE0D0DAE7114303D18445D6D10020A1
:1012F800D9E702204042D6E78445E6D0CEE7C0468B
:10130800FF070000F0B557464E464546DE46E0B5B5
:101318000D000F0304008046E80F390B844683B0A4
:101328005800304F400D01911E03690082469146D6
:10133800490D360BD80FB94220D0BA450FD0002935
:101348002BD101990C435146002937D1324338D06B
:10135800002C44D1002819D10120404216E0164340
:1013680013D1002902D1019F2743F3D0844520D00F
:1013780063460220013B1840013807E0019F2743DC
:1013880003D18A45F4D116431FD0022003B0F0BC24
:10139800BB46B246A946A046F0BD5446002CE7D04D
:1013A8008445E5D15145E3DC03DB019BB342DFD83B
:1013B8000FD06346002BCFD06046E7E7002CC9D09A
:1013C800D4E70020002CE1D0D2E78445D0D100201A
:1013D800DCE7C845CCD80020C845D7D2E9E7844522
:1013E800E3D0C5E7FF070000F0B55746DE464E4696
:1013F8004546E0B51F000B031B0B16009A46CA0FA3
:101408004B000400934687B05B0D00D1D5E0BB4A82
:10141800934200D1F8E05146420FC9000A438021A7
:1014280009041143C2009146B54A8A469D18002313
:10143800984602933C037B00FA0F3000240B5B0DA7
:10144800009200D196E0AD4A934231D0720FE40089
:101458002243802424041443A94AF0009446634498
:101468005B195A1C0192424600260A2A42DC5A4657
:1014780000994A4093464246022A32DC013A012A40
:1014880000D949E1022E00D1CAE0012E3DD1002346
:101498000024002210005A461B052343D207134399
:1014A800190007B0F0BCBB46B246A946A046F0BD3D
:1014B800924B2643EB18002E00D1BBE00322414695
:1014C80011435A46884600994A40802109018C46B2
:1014D80029006144019141460A2900DD33E293461F
:1014E8000326424601279740A6213A00C9000A4030
:1014F8000F4231D0029E022E00D135E2032E00D1D8
:10150800D2E154464846012EC1D0019A7D4B9446FB
:101518006344002B00DCC0E0420709D00F220240E0
:10152800042A05D0021D824280414042241810003E
:10153800E20106D5744B019A1C4080239446DB00D7
:101548006344724A93426BDC6207C00864025B051D
:101558000243240B5B0D9DE7902189000F4263D164
:1015680088223A4200D1D7E0009BA2469B4681469A
:101578000296BFE72300334300D17FE0002C00D15F
:10158800ADE1200000F044FE020003000B3A1D20EC
:101598001900821A30000839D0408C4004433000CA
:1015A80088405B4AEB1A944663445A1C01924246AF
:1015B80000260A2A00DC5AE79CE75346034399466B
:1015C80054D05346002B00D177E1504600F020FE5E
:1015D8000B235B429C4602008444110050460839A4
:1015E80088401D23804660461B1A2000D84003000F
:1015F800404603439A4623008B4099460023444DB6
:101608009846AD1A029315E752460243914626D1F1
:1016180000221D000223924608329046029309E7F1
:1016280000240022354B35E7002380249B46240301
:10163800324B2FE702224146114380221201944681
:101648002A006244884601920A2900DD52E75A4678
:101658000020009904004A40934602260BE70C221A
:101668001D000323814690460293E3E600239A4631
:1016780004339846033B00250293DBE642460133D8
:101688001A432B0090465A1C01924246002400201F
:1016980001260A2A00DCEAE62CE70122D21A382AB7
:1016A80000DDF4E61F2A00DC2AE11F214942CB1A9B
:1016B8002100D9400B00202A05D0164A019D9446E6
:1016C8006544AC402043421E90411843072319004B
:1016D8000024014003420CD00F230340042B00D107
:1016E80040E1031D8342A44118006442610764027B
:1016F800240BC20800230A43CCE6C046FF070000BB
:1017080001FCFFFFFF030000FFFFFFFEFE070000D4
:101718000DFCFFFF3E04000049464A460904090C37
:101728000D00160C020C0004000C4543AC460500E5
:101738007543A84615000F007543009202952A00CC
:10174800009D6F4365462D0CA94647444F44B84554
:1017580005D91500802252029046454402953D0C59
:10176800039565462D043F042D0CAC463D006544A9
:101778000495250C2404240CAC4625007543A84682
:1017880065460F006943414489466743390C49441B
:101798006E43884503D980225202904646440D0C78
:1017A800A846350045440595039D3F04A8463F0CCF
:1017B8000904C91988444546039555462E04360C34
:1017C8002F0C35004543784381463800A8462D0C38
:1017D800AA46009A504372434A445244914503D959
:1017E80080256D02A9464844150CA94645462D0496
:1017F8002D0CA84665467D43120448449044A946EA
:101808003200654662436E437C43170C3619BF1994
:10181800BC4203D980246402A446E144029C039E8E
:10182800A446059D66448E428941AC4612043C0498
:10183800120CA2186244494254184644A44646452C
:10184800A44182466442A046AA4292418C458941FD
:10185800E244D044494252420A43A045A441824549
:101868008941644249420C4341463F0CD21912193E
:10187800CC0D049970020843411E884141464A44F0
:10188800F60D52023043490214430843D20135D5BC
:101898000122430802401343E0071843640834E672
:1018A800009BA2469B4681468024534624031C4342
:1018B80024034A462E4B240BECE500F0A9FC152323
:1018C8009C4684440200634620321C2B00DC84E6DC
:1018D800002399462300083883409A468EE600F094
:1018E80097FC02000300153220331C2A00DC4EE668
:1018F80002003400083A0020944052E6019304E6BE
:101908001C4B21009C460300019DD3406544A9401F
:1019180019430300AB40581E834119430800D440C3
:101928004B0709D00F230B40042B05D00B1D8B420E
:101938008041404224181800230200D4D6E601232F
:1019480000240022A6E50F29AAD1802352461B03B2
:101958001A42A9D01C42A7D11C43009B02009B46F7
:10196800034B97E50024C1E60024014B220091E5D2
:10197800FF0700001E040000F0B54E464546DE464F
:101988005746E0B585B0009001910C034F00CE0F8B
:10199800610A009CB046640F0C4300997F0DC80093
:1019A80011001A001B039C460091019251004B0D37
:1019B8009946019B009DD90F63466A0F5B0A134342
:1019C800EA0094469346C14A03900293914500D198
:1019D800CDE0012569404D467D1BAA468E4200D1C7
:1019E80080E0002D00DC35E34946002900D1DFE026
:1019F800974200D194E152460125382A19DC802209
:101A0800029B12041343029352461F2A00DDE3E1AE
:101A1800534620226146029DD21A9540D9400D4373
:101A2800614691400A00511E8A411543029ADA40E4
:101A3800A41A451BA84280414042241A230200D41C
:101A48003DE16402640A002C00D147E1200000F067
:101A5800DFFB0300083B20212800CA1AD0409C4025
:101A680002009D4022439F4200DD77E1D81B0130F0
:101A7800091A2C008D40C4406B1E9D411300C240C2
:101A88008B402543002714001D436B0709D00F2303
:101A98002B40042B05D02B1DAB42AD416D42641980
:101AA8001D00230200D440E1884A0137974200D143
:101AB80001E1012643468649ED0821404A072A43A9
:101AC8007C054D022D0B640D1E4024052C43F607A2
:101AD80034431000210005B0F0BCBB46B246A9460D
:101AE800A046F0BD002D00DCD0E24946002900D018
:101AF800D4E06146029B194300D12BE1691E012DF8
:101B080000D1D9E1954200D10AE10125382917DC35
:101B18008A4653461F2B00DDE7E12022D21A029B9A
:101B2800614693401D005346D940634693401A00CE
:101B38000D43511E8A4153461543029ADA40A418B0
:101B48002D188542804140422418230200D4B6E073
:101B58005E4B01379F4200D1ADE001215C4B6A0822
:101B68001C4029400A43E507154364088DE7594A94
:101B7800029B92466246BA441A432CD08E422ED01B
:101B88005246002A60D0002F00D1DBE063460E00E9
:101B9800029CD80862070243E4081300234300D1DB
:101BA80054E280252D0325432D03484C2D0B8CE74B
:101BB8006146029B194300D1CCE029000139012D6F
:101BC80000D188E1954200D1AAE00125382900DD3D
:101BD8002FE78A4618E7012251408E42D0D153465A
:101BE800002B00D1BEE0002F00D038E1CA46220009
:101BF800024300D1E2E15346591E012B00D10DE208
:101C0800324A924500D1D2E10127382913DC1F2935
:101C180000DDEEE12022029B521A250007009A46B9
:101C2800CC4090409540CF40A244421E904153463C
:101C38002F43074302933D00654465459241029B4B
:101C480052424F46D41880E7234A7D1C154200D0E3
:101C5800AAE062462500029B05431A43002F00D0E4
:101C6800F5E0002D00D16BE1002A00D152E1634676
:101C7800C51A029BE21AA8429B415B42D31A1A0278
:101C880000D4D5E163461D1AAC4592410126029B5A
:101C980052421C1B8846A41A0E40F6E697423FD0D3
:101CA80052460125382A00DD4AE78022029B1204A9
:101CB800134302932DE73C000025002205E7072384
:101CC8002B40002B00D0E2E66BE0C046FF07000087
:101CD800FFFF7FFF01F8FFFFFE070000280000F06C
:101CE80097FA030018331F2B00DCB4E62A000838E3
:101CF80082409F4200DDB9E0DB1B581C1F2800DC36
:101D0800A0E115001F3BDD40202805D040231B1A09
:101D18009A40531E9A411543072300272B40D0E7CA
:101D2800C00862070243E40837E7EA0863071A4372
:101D3800D34BE4089F4200D12FE72403250B7C05F1
:101D4800640DC2E6CA462200024358D163460E001B
:101D5800029C0393039B5746DA08E7E7C94CFF1A2E
:101D6800144092E6C84D7A1C2A4200D084E0220032
:101D78000243002F00D0EFE0002A00D1E5E06246E0
:101D880002990A4300D1C5E06346C5188C468542CE
:101D98008041644440422418230202D5B94B0137DC
:101DA8001C40BA460395D5E76246851AA842924177
:101DB80052429146029BE31A1A004B46D21A13006C
:101DC80091461A026CD44A464C462A4300D03AE659
:101DD80000260024002578E6029953460D00203A93
:101DE800D540202B06D04022D21A0B0093406246E1
:101DF8001A4393465B465A1E93411D4319E65346C0
:101E08005A1E012B00D1C6E09D4EB24500D1BDE659
:101E180088460E000125382A10DC1F2A7FDC202185
:101E28002500891A070088408D40D740D440411EBC
:101E38008841029B3D431B1B054302936246551B89
:101E4800AC459241029B52424F469C1AF6E5002D42
:101E580000D0B7E0002A00D1F0E001260E4063462A
:101E68000298D90842070A43C40896E6854CFF1A27
:101E780014406207E40860E781498A4200D1C9E05A
:101E88006346C11881428041029B4042E3181B18F7
:101E9800DD075C08072349080D4317002B4010E7AE
:101EA80063461D1AAC4592410126029B52421C1BF7
:101EB8008846A41A0E40C6E56346C518029B8542AB
:101EC80080419C464042644424180127230200D4E0
:101ED800F5E6022741E66346C51AA8428041029BFF
:101EE8004042E41A0127241AA8E5029D52462B0015
:101EF800203AD34019005346202B06D04022D21A4C
:101F08002B00934062461A4393465D466B1E9D41E3
:101F18000D4315E66207C0080243E4080DE7110007
:101F280027002039CF40202A05D040218A1A944022
:101F3800250005430395039D6A1E95413D437DE7B2
:101F4800002A00D144E701260E406346D908029BC7
:101F58005A070A43DC08F0E6002A28D06246029FA6
:101F6800C0083A4300D1DCE6620710438022E40847
:101F78001203144209D0FD08154206D16346012612
:101F88002C00D8087B0718430E40420FC000C00839
:101F98005207024301E663461D1AAC459241029B73
:101FA80052421C1B0E0088460127A41A46E56346C8
:101FB800D908029B5A070A43DC08EEE56346029CEF
:101FC8000393C7E6C008002A00D1AAE662071043B7
:101FD8008022E40812031442D7D0029FFD0815425C
:101FE800D3D163460126D8087B072C0018430E403E
:101FF800CBE70A002700203AD740202905D0402205
:10200800521A9440250005430395039D6A1E954185
:102018002F4310E614000025002256E5029B604479
:102028009946604592414C4452420500A4184CE739
:102038001A001C002A4300D0B3E6C9E68024002613
:102048002403AEE520210025091A17E50022002502
:102058000B4C3AE5002D00D1F6E54B46DA1B9246CB
:10206800002F00D16FE6382A05DC80263604344379
:1020780088460E00D1E688460E000125DEE6C046F9
:10208800FF070000FFFF7FFFFE070000002D00D1C3
:1020980068E64B46D91B002F01D18A46A7E50127E0
:1020A800382900DDC7E5802212041443AFE5C04695
:1020B800F0B5C6461E03360BB0460D4E0C034D0058
:1020C8005F0000B5240B6D0D7F0DB5420BD008499C
:1020D80000208F4204D1464616433000431E9841E3
:1020E80080BCB846F0BD04430120002CF8D1EEE7CF
:1020F800FF0700000B00020070B5164D0C0382B0FC
:102108004900002000920193240B490DDE0FA942DB
:1021180004DD1148814203DD104BF01802B070BD98
:102128008020400320430E4C641A1F2C08DD0D4B01
:102138005B1AD84003005842002EEFD11800EDE793
:10214800094B009A9C46030061448B40E2401343CC
:10215800F1E7C046FE0300001D040000FFFFFF7FFB
:102168003304000013040000EDFBFFFF70B50028E6
:1021780016D0C317C5185D40C40F280000F048F8F2
:10218800104B1B1A5B055B0D0A2814DC02002E009D
:10219800153296400B22121AD5402D032D0B03E061
:1021A80000240023002500261B052B43E4072343B6
:1021B8003000190070BD0B3885402D0300262D0B0B
:1021C800F2E7C0461E04000010B5041E10D000F04F
:1021D8001FF80E4B1B1A5B055B0D0A280FDC0B2240
:1021E8002100121AD14015300A038440120B01E075
:1021F800002300221B0513432000190010BD2200F4
:102208000B38824012030024120BF3E71E0400006F
:102218001C2101231B04984201D3000C10391B0A0E
:10222800984201D3000A08391B09984201D30009D2
:10223800043902A2105C40187047C0460403020229
:1022480001010101000000000000000080B586B017
:1022580000AF78607B6880225201D31A7B617B696A
:102268002B4A5A437B692B49CB1A19001000FDF7FA
:102278005FFF03001800FFF7A7FF02000B00100024
:10228800190006F049F902000B00BA60FB60224A07
:10229800224BB868F968FFF7A7F802000B00100096
:1022A8001900BA68FB68FFF79FF802000B001000DE
:1022B80019001B4A1B4BFEF7EFF802000B00100039
:1022C8001900BA68FB68FFF78FF802000B001000CE
:1022D8001900154A154BFEF7DFF802000B00002025
:1022E8001349FEF73DFC02000B00BA60FB60114A7F
:1022F800114BB868F968FFF73FFB02000B00BA60A2
:10230800FB60BA68FB6810001900BD4606B080BDC6
:1023180010270000FF0F0000190D1714EB88773EF7
:10232800C2C3B46FEEAF2E3F90B8DE6EFD7F523F52
:102338000000F03F666666666612714080B582B03E
:1023480002AF00F069FB00F065F800F053F900F007
:10235800A9F800F00FF9274B180000F0E5FE02F08D
:1023680087FF002002F0F0FF224B3221180000F016
:1023780029FF204B180000F0B9FF02001E4B9A609D
:102388001D4B9B681800FFF761FF00221B4BFFF7EE
:10239800F3FA02000B001A490A604B60184B1A68DE
:1023A8005B6818491848009201930A000A2103F053
:1023B800BFFE02210F2003F03DF9144A14480123FF
:1023C8001168526803F00CF91B210E2003F032F952
:1023D8000E4A0D4801231168526803F001F92E21B5
:1023E8002D2003F027F902F0D3FF322000F09AFBEA
:1023F800C046B9E7FC010020CC02002000002440C0
:10240800B802002018890008C00200200C00002033
:102418001C89000890B593B000AF14243B1918002C
:1024280034231A00002103F016FF3B1D1800102367
:102438001A00002103F00FFF80239B00180002F010
:10244800DDF83B1902221A603B1980225200DA603B
:102458003B1900221A613B1940225A613B1900229C
:10246800DA613B19180002F009F9031E01D000F0E7
:10247800FBF83B1D07221A603B1D00225A603B1DDA
:1024880000229A603B1D0022DA603B1D00211800E3
:1024980002F004FC031E01D000F0E6F8C046BD4679
:1024A80013B090BD80B584B000AF3B1D18000C235D
:1024B8001A00002103F0CFFE2B4B2C4A1A602A4B3E
:1024C8008022D2055A60284B00229A60264B0022AF
:1024D800DA60254B00221A61234B04225A61224BF1
:1024E80000221A76204B00225A761F4B01229A7638
:1024F8001D4B0122DA611C4B00225A621A4B002242
:102508009A62194B2C2200219954174B00221A6306
:10251800154B00225A63144B00229A63124B3C223B
:1025280000219954104B0022DA640F4B180000F078
:1025380053FC031E01D000F097F83B1D0C4A1A60AB
:102548003B1D00225A603B1D00229A603A1D064B33
:102558001100180000F0D6FE031E01D000F084F828
:10256800C046BD4604B080BDFC01002000240140E7
:102578001000001080B500AF1B4B1C4A1A601A4BA4
:102588001B4A5A60184B00229A60174B0122DA60E6
:10259800154B00221A61144B00225A61124B00227B
:1025A8009A61114B0022DA610F4B00221A620E4B1E
:1025B800180001F01DFB031E01D000F055F80A4B6E
:1025C8000021180001F082FF031E01D000F04CF832
:1025D800054B0021180001F0C5FF031E01D000F0D3
:1025E80043F8C046BD4680BD60020020005400404C
:1025F800583D500080B584B000AF1A4B5A6B194B48
:1026080004210A435A63174B5B6B04221340FB6097
:10261800FB68144B5A6B134B20210A435A63114B26
:102628005B6B20221340BB60BB680E4B5A6B0D4B93
:1026380001210A435A630B4B5B6B012213407B60F9
:102648007B68084B5A6B074B02210A435A63054BB8
:102658005B6B022213403B603B68C046BD4604B03A
:1026680080BDC0460010024080B500AF72B6C046BB
:10267800C046FDE780B582B000AF0F4B1A6C0E4B19
:1026880001210A431A640C4B1B6C012213407B6026
:102698007B68094BDA6B084B802149050A43DA63EA
:1026A800054BDA6B80235B0513403B603B68C046F3
:1026B800BD4602B080BDC0460010024090B58BB048
:1026C80000AF786014243B19180014231A00002165
:1026D80003F0C1FD7B681B68184A934229D1184B47
:1026E8001A6C174B802149030A431A64144B1A6C5D
:1026F80080235B0313403B613B69114B5A6B104BC2
:1027080001210A435A630E4B5B6B01221340FB60A5
:10271800FB683B1910221A603B1903225A603B19C7
:1027280000229A603A19A023DB051100180001F075
:10273800FBF8C046BD460BB090BDC0460024014022
:102748000010024090B591B000AF78602C23FB18C0
:10275800180014231A00002103F07DFD14243B19EE
:10276800180018231A00002103F075FD7B681B6808
:10277800224A93423DD13B1920221A603B1900227C
:102788009A603B19180002F013FC031E01D0FFF7F2
:102798006BFF1B4B5A6B1A4B02210A435A63184BA7
:1027A8005B6B022213403B613B692C217B18C022E2
:1027B8001A607B1812225A607B1800229A607B18D4
:1027C8000022DA607B1806221A617B180D4A19006C
:1027D800100001F0A9F80A4BDA6B094B8021890334
:1027E8000A43DA63064BDA6B80239B031340FB60D2
:1027F800FB68C046BD4611B090BDC04600540040BD
:10280800001002400004005080B500AFC046FDE74C
:1028180080B500AFC046FDE780B500AFC046BD46F5
:1028280080BD80B500AFC046BD4680BD80B500AF55
:1028380000F05CF9C046BD4680BD80B500AF0123FD
:102848001800BD4680BD80B582B000AF78603960A1
:1028580003F05CFD030016221A6001235B42180096
:10286800BD4602B080BD80B582B000AF786001235C
:102878005A427B6811001800FFF7E5FFC046FDE7E4
:1028880080B586B000AFF860B9607A6000237B61DC
:102898000AE000E000BF0100BB685A1CBA60CAB277
:1028A8001A707B6901337B617A697B689A42F0DB35
:1028B8007B681800BD4606B080BD80B586B000AF05
:1028C800F860B9607A6000237B6109E0BB685A1C34
:1028D800BA601B78180000E000BF7B6901337B6198
:1028E8007A697B689A42F1DB7B681800BD4606B0BE
:1028F80080BD80B582B000AF786001235B421800CC
:10290800BD4602B080BD80B582B000AF7860396046
:102918003B68802292015A6000231800BD4602B02D
:1029280080BD80B582B000AF786001231800BD4635
:1029380002B080BD80B584B000AFF860B9607A603D
:1029480000231800BD4604B080BD000080B586B0E5
:1029580000AF7860144A154BD31A7B617B693B61E1
:10296800134B1B68002B02D1114B124A1A60104BF3
:102978001A687B68D3183A699A4207D203F0C6FCF2
:1029880003000C221A6001235B4209E0084B1B6814
:10299800FB60074B1A687B68D218054B1A60FB6806
:1029A8001800BD4606B080BD0020002000040000CD
:1029B800F40200205008002080B500AFC046BD4694
:1029C80080BD00000D488546FFF7F6FF0C480D490D
:1029D8000D4A002302E0D458C4500433C4188C4272
:1029E800F9D30A4A0A4C002301E013600432A242D8
:1029F800FBD303F091FCFFF7A1FCFEE700200020C9
:102A080000000020DC010020809A0008E00100207E
:102A180050080020FEE7000080B582B000AFFB1D23
:102A280000221A700B4B1A680A4B802149000A438E
:102A38001A60032000F010F8031E03D0FB1D0122CA
:102A48001A7001E0FFF716FEFB1D1B781800BD4643
:102A580002B080BD0020024090B585B000AF78601C
:102A68000F23FB1800221A701D4B1B78002B2BD04C
:102A78001C4B1C681A4B1B781900FA239800FDF7A9
:102A880057FB030019002000FDF752FB0300180054
:102A980000F03DFF031E12D17B68032B0AD879682A
:102AA80001235B420022180000F01CFF0E4B7A68DD
:102AB8001A600DE00F23FB1801221A7008E00F239B
:102AC800FB1801221A7003E00F23FB1801221A7069
:102AD8000F23FB181B781800BD4605B090BDC046F3
:102AE80008000020000000200400002080B500AF8E
:102AF800054B1B781A00054B1B68D218034B1A604C
:102B0800C046BD4680BDC04608000020F80200202F
:102B180080B500AF024B1B681800BD4680BDC0469B
:102B2800F802002080B584B000AF7860FFF7F0FFAE
:102B38000300BB607B68FB60FB68013305D00A4B70
:102B48001B781A00FB689B18FB60C046FFF7E0FF84
:102B58000200BB68D31AFA689A42F7D8C046C04642
:102B6800BD4604B080BDC0460800002080B582B0D4
:102B780000AF786039607B681B68054A1A403B687B
:102B88001A437B681A60C046BD4602B080BDC04685
:102B9800FFFF3FFE80B582B000AF78607B681A689F
:102BA800E0235B0413401800BD4602B080BD80B529
:102BB80084B000AFF860B9607A60FB685B69BA6896
:102BC80004210A40072191400A00D2431A40BB68F9
:102BD80004210B40796899400B001A43FB685A613D
:102BE800C046BD4604B080BD80B582B000AF7860F5
:102BF80039607B685B693A6804210A400721914083
:102C08000A001A403B6804210B40DA401300180000
:102C1800BD4602B080BD80B582B000AF78607B68E9
:102C2800DA68C0231B01134001D1012300E000230F
:102C38001800BD4602B080BD80B584B000AFF86012
:102C4800B9607A60FB689B6ABA681F210A400F2145
:102C580091400A00D2431A407B689B0E0F2119400D
:102C6800BB681F20034099400B001A43FB689A6217
:102C7800C046BD4604B080BD80B582B000AF786064
:102C880039607B689A6A3B685B035B0B1A437B6815
:102C98009A62C046BD4602B080BD80B582B000AF22
:102CA800786039607B689B6A3A685203520BD2435A
:102CB8001A407B689A62C046BD4602B080BD0000DB
:102CC80080B584B000AFF860B9607A60FB685B6972
:102CD800BA681202D2431A40BB681B0279680B40DB
:102CE80004490B401A43FB685A61C046BD4604B00C
:102CF80080BDC04600FFFF0780B582B000AF786096
:102D08007B689B68054A1340802252051A437B68FA
:102D18009A60C046BD4602B080BDC046E8FFFF6F5E
:102D280080B582B000AF78607B689A6880235B05C5
:102D38001A4080235B059A4201D1012300E0002359
:102D48001800BD4602B080BD80B582B000AF786083
:102D58007B689B68044A134001221A437B689A6087
:102D6800C046BD4602B080BDE8FFFF7F80B582B097
:102D780000AF78607B689B6801221340012B01D16A
:102D8800012300E000231800BD4602B080BD00000A
:102D980080B582B000AF78607B689B68044A1340B6
:102DA80004221A437B689A60C046BD4602B080BDC3
:102DB800E8FFFF7F80B582B000AF78607B689B68D2
:102DC80004221340042B01D1012300E00023180042
:102DD800BD4602B080BD000080B588B000AF786005
:102DE8001F23FB1800221A700023BB6100237B619C
:102DF8000023FB607B68002B01D101237FE17B6806
:102E08009B6D002B0AD17B681800FFF757FC7B6885
:102E18000022DA657B685422002199547B681B687C
:102E28001800FFF77DFF031E15D17B681B6818008B
:102E3800FFF762FFB44B1B68B4491800FDF778F937
:102E4800030001335B00FB6002E0FB68013BFB60B1
:102E5800FB68002BF9D17B681B681800FFF760FF3F
:102E6800031E0FD17B689B6D10221A437B689A65FD
:102E78007B68DB6D01221A437B68DA651F23FB1828
:102E880001221A707B681B681800FFF793FF030084
:102E98003B617B689B6D1022134000D022E13B69A7
:102EA800002B00D01EE17B689B6D994A13400222DB
:102EB8001A437B689A657B681B681800FFF756FF02
:102EC800031E00D0ADE07B689A687B681B7E9B037D
:102ED8001A437B685B7EDB031A437B689B7E5B033C
:102EE8001A437B681B6B002B02D080235B0100E038
:102EF80000231A437B68DB681A437B681B69002B35
:102F080004DA7B681B695B005B0801E080239B0394
:102F18001A437B682C215B5C5B001343BA6913433B
:102F2800BB617B6820229B5C012B15D17B689B7E53
:102F3800002B05D1BB69802252021343BB610BE011
:102F48007B689B6D20221A437B689A657B68DB6DE2
:102F580001221A437B68DA657B685B6A002B0AD01A
:102F68007B685A6AE0235B001A407B689B6A1343BC
:102F7800BA691343BB617B681B68DB68654A134009
:102F880019007B681B68BA690A43DA607B685B686A
:102F98009B0F9A077B68DB6C13437A6913437B6149
:102FA8007B683C229B5C012B11D17B685B689B0F83
:102FB8009A077B681B6C1A437B685B6C1A437B68B7
:102FC8009B6C1A437B691343012213437B617B6823
:102FD8001B681B69504A134019007B681B687A6993
:102FE8000A431A617B685A68C0231B069A4218D0A4
:102FF8007B685A688023DB059A4212D07B685A683E
:1030080080231B069A420CD0444B1B68444A134049
:1030180019007B685A68F0239B031A403F4B0A4308
:103028001A607B6818687B685B6B1A000021FFF7E1
:10303800BEFD7B6818687B689B6B3A491A00FFF7EE
:10304800B6FD7B681B69002B09D17B681B689A6AEF
:103058007B681B68102149420A439A6218E07B6822
:103068001A6980239B039A4212D17B681B689B6A6A
:103078007B68DB69013B9B001C22134010225242F3
:103088009A4011007B681A6E7B681B680A439A6233
:103098007B681B6800211800FFF7A6FD02007B680B
:1030A8005B6B9A420BD17B680022DA657B689B6D6B
:1030B8000322934301221A437B689A651CE07B68CC
:1030C8009B6D1222934310221A437B689A657B6892
:1030D800DB6D01221A437B68DA651F23FB18012286
:1030E8001A7009E07B689B6D10221A437B689A6509
:1030F8001F23FB1801221A701F23FB181B781800C6
:10310800BD4608B080BDC04600000020400D030049
:10311800FDFEFFFF0102DEFF02FCFF1F0827014042
:10312800FFFFC3FF04FFFF07B0B584B000AF7860AE
:103138007B681B681800FFF73DFE031E35D17B68CE
:1031480054229B5C012B01D1022335E07B68542279
:10315800012199540F257C197B68180000F0AAFA00
:10316800030023707B191B78002B19D17B689B6D9A
:10317800134A1340802252001A437B689A657B6881
:103188000022DA657B681B681C221A607B6854225F
:10319800002199547B681B681800FFF7F9FD08E0C7
:1031A8007B6854220021995403E00F23FB18022264
:1031B8001A700F23FB181B781800BD4604B0B0BD69
:1031C800FEF0FFFF80B584B000AF786039607B689F
:1031D8005B69082B02D10823FB600FE07B681B6842
:1031E800DB680122134007D07B689B6D20221A43BD
:1031F8007B689A65012372E00423FB60FFF788FC73
:103208000300BB601FE03B6801331CD0FFF780FC64
:103218000200BB68D31A3A689A4202D33B68002B73
:1032280011D17B681B681B68FA6813400BD17B6857
:103238009B6D04221A437B689A657B68542200219F
:10324800995403234BE07B681B681B68FA6813409A
:10325800D9D07B689B6D802292001A437B689A655F
:103268007B681B681800FFF7D6FC031E2ED07B680E
:103278009B7E002B2AD17B681B681B6808221340A1
:10328800082B23D17B681B681800FFF793FD031EEA
:1032980010D17B681B685A687B681B680C218A43BD
:1032A8005A607B689B6D104A134001221A437B6861
:1032B8009A650BE07B689B6D20221A437B689A65B0
:1032C8007B68DB6D01221A437B68DA657B681B7EAD
:1032D800002B03D17B681B680C221A60002318009E
:1032E800BD4604B080BDC046FEFEFFFF80B582B07B
:1032F80000AF78607B681B681B6C1800BD4602B085
:1033080080BD000080B586B000AF786039601723B3
:10331800FB1800221A700023FB607B6854229B5C18
:10332800012B01D10223C0E17B6854220121995469
:103338007B681B681800FFF73DFD031E00D0A3E162
:103348003B685B68022B00D143E17B681A698023E4
:103358001B069A4204D07B681B69C14A934208D174
:103368007B681A683B681B6819001000FFF784FC2B
:10337800C9E07B681A6E3B685B681F210B400F2110
:1033880099400B00DB43134019003B681B685B0343
:103398005B0B05D13B681B689B0E1F22134098E00E
:1033A8003B681B680122134000D091E03B681B6812
:1033B8000222134000D089E03B681B6804221340B6
:1033C80000D081E03B681B680822134000D079E0F8
:1033D8003B681B681022134000D071E03B681B68F3
:1033E8002022134000D069E03B681B68402213404C
:1033F80000D061E03B681B688022134000D059E090
:103408003B681A6880235B00134051D13B681A68F7
:1034180080239B00134049D13B681A688023DB0056
:10342800134041D13B681A6880231B01134039D1EE
:103438003B681A6880235B01134031D13B681A68E6
:1034480080239B01134029D13B681A688023DB0144
:10345800134021D13B681A6880231B02134019D1FD
:103468003B681A6880235B02134011D13B681A68D5
:1034780080239B02134009D13B681A688023DB0232
:10348800134001D0122324E0002322E0112320E07E
:1034980010231EE00F231CE00E231AE00D2318E072
:1034A8000C2316E00B2314E00A2312E0092310E092
:1034B80008230EE007230CE006230AE0052308E0B2
:1034C800042306E0032304E0022302E0012300E0D2
:1034D80000233A6852681F20024093400A001A43AA
:1034E8007B681A663B685B689B085A1C7B68DB69CB
:1034F8009A4208D87B6818683B6859683B681B681B
:103508001A00FFF799FB7B6818683B6819683B68E5
:103518009B681A00FFF7D4FB3B681B68002B00DB95
:10352800BCE0504B1800FFF735FB03003B613B68DC
:103538001B684D4A934222D13A6980231B041340E9
:103548001DD13B69802212041343464A190010001A
:10355800FFF70CFB454B1B6845491800FCF7E8FDD5
:1035680003005A1C13005B009B189B00FB6002E0E1
:10357800FB68013BFB60FB68002BF9D18EE03B68E0
:103588001B683C4A93420ED13A6980235B0413407E
:1035980009D13B69802252041343324A19001000B2
:1035A800FFF7E4FA7AE03B681B68334A934200D09D
:1035B80074E03A698023DB03134000D06EE03B6976
:1035C8008022D2031343274A19001000FFF7CEFACE
:1035D80064E07B681A6980231B069A4204D07B68E2
:1035E8001B691F4A934207D17B681A683B681B68AE
:1035F80019001000FFF751FB3B681B68002B4DDAE0
:10360800184B1800FFF7C6FA03003B613B681B68BC
:10361800154A934208D13B69184A1340114A1900C8
:103628001000FFF7A3FA39E03B681B68114A934280
:1036380008D13B69124A13400A4A19001000FFF7E3
:1036480095FA2BE03B681B680B4A934226D13B69ED
:103658000C4A1340034A19001000FFF787FA1DE0CF
:103668000400008008270140001000B0000000207E
:10367800400D0300004000B8002000B4FFFF7FFFAA
:10368800FFFFFFFEFFFFBFFF7B689B6D20221A43F1
:103698007B689A651723FB1801221A707B685422ED
:1036A800002199541723FB181B781800BD4606B053
:1036B80080BDC04680B584B000AF78600023BB6091
:1036C8007B681B681800FFF751FB031E00D069E0F8
:1036D8007B681B689B68364A13400DD07B689B6DDE
:1036E80010221A437B689A657B68DB6D01221A43B6
:1036F8007B68DA65012356E07B681B681800FFF7D2
:1037080023FB2C4B1800FFF745FA020080231B040B
:1037180013400FD0284B1B6828491800FCF708FDF8
:1037280003000133BB6002E0BB68013BBB60BB68C0
:10373800002BF9D17B685B7E012B33D0FFF7E8F9CA
:103748000300FB6027E07B681B681800FFF70EFB8F
:10375800031E04D17B681B681800FFF7F5FAFFF712
:10376800D7F90200FB68D31A022B14D97B681B68AF
:103778001B6801221340012B0DD07B689B6D102222
:103788001A437B689A657B68DB6D01221A437B6864
:10379800DA65012307E07B681B681B680122134078
:1037A800012BD0D100231800BD4604B080BDC0460F
:1037B800170000800827014000000020400D03008A
:1037C80090B583B000AF02003960FB1D1A70FB1D75
:1037D8001B787F2B28D82F4AFB1D1B785BB29B08D0
:1037E800C0339B009B58FA1D1278110003220A402F
:1037F800D200FF2191400A00D2431A4011003B68D1
:103808009B01FF221A40FB1D1B781800032303406D
:10381800DB009A401F48FB1D1B785BB29B080A43DC
:10382800C0339B001A5031E01B4AFB1D1B7819005E
:103838000F230B40083B9B0806339B00D318043327
:103848001B68FA1D1278110003220A40D200FF21DA
:1038580091400A00D2431A4011003B689B01FF22A5
:103868001A40FB1D1B78180003230340DB009A4015
:103878000948FB1D1B781C000F232340083B9B08AD
:103888000A4306339B00C31804331A60C046BD467A
:1038980003B090BD00E100E000ED00E080B582B02B
:1038A80000AF78607B685A1E80235B049A4201D37C
:1038B800012310E00A4B7A68013A5A6001235B42FF
:1038C80003211800FFF77CFF054B00229A60044B88
:1038D80007221A6000231800BD4602B080BDC0460A
:1038E80010E000E080B584B000AFB9607A600F21C5
:1038F8007B18021C1A70BA687B181B785BB211001F
:103908001800FFF75DFFC046BD4604B080BD80B516
:1039180082B000AF78607B681800FFF7BFFF030034
:103928001800BD4602B080BD80B586B000AF786093
:10393800396000237B6147E13B681B6801217A6994
:1039480091400A001340FB60FB68002B00D138E16E
:103958003B685B6803221340012B05D03B685B681A
:1039680003221340022B30D17B689B683B617B6943
:103978005B0003229A401300DA433B6913403B6122
:103988003B68DA687B695B009A4013003A69134325
:103998003B617B683A699A607B685B683B6101229E
:1039A8007B699A401300DA433B6913403B613B68EB
:1039B8005B681B0901221A407B699A4013003A6927
:1039C80013433B617B683A695A603B685B68032232
:1039D8001340032B17D07B68DB683B617B695B0076
:1039E80003229A401300DA433B6913403B613B686A
:1039F8009A687B695B009A4013003A6913433B61FC
:103A08007B683A69DA603B685B6803221340022BE3
:103A180023D17B69DA087B6808329200D3583B616E
:103A28007B69072213409B000F229A401300DA4358
:103A38003B6913403B613B681A697B6907210B406E
:103A48009B009A4013003A6913433B617B69DA088B
:103A58007B68083292003969D1507B681B683B61EA
:103A68007B695B0003229A401300DA433B691340E9
:103A78003B613B685B6803221A407B695B009A40A4
:103A880013003A6913433B617B683A691A603B68E3
:103A98005A68C0239B02134000D192E0504A7B69C8
:103AA8009B0818339B009B583B617B69032213409A
:103AB800DB000F229A401300DA433B6913403B6155
:103AC8007A68A023DB059A4213D07B68454A934263
:103AD8000DD07B68444A934207D07B68434A93429F
:103AE80001D1032306E0052304E0022302E00123B9
:103AF80000E000237A6903210A40D20093403A6922
:103B080013433B6136497B699B0818339B003A692C
:103B18005A50334B1B683B61FB68DA433B691340DF
:103B28003B613B685A6880235B03134003D03A69C2
:103B3800FB6813433B612A4B3A691A60284B5B6860
:103B48003B61FB68DA433B6913403B613B685A6859
:103B580080239B03134003D03A69FB6813433B61FE
:103B68001F4B3A695A601E4A8423D3583B61FB684D
:103B7800DA433B6913403B613B685A6880239B02E8
:103B8800134003D03A69FB6813433B61144984220C
:103B98003B698B50124A8023D3583B61FB68DA4358
:103BA8003B6913403B613B685A6880235B021340C2
:103BB80003D03A69FB6813433B61094980223B699A
:103BC8008B507B6901337B613B681A687B69DA40FB
:103BD800131E00D0B0E6C046C046BD4606B080BD44
:103BE800001802400004005000080050000C00506B
:103BF80080B582B000AF78607B68002B01D10123CB
:103C08008FE07B6841229B5CDBB2002B07D17B688D
:103C18004022002199547B681800FEF793FD7B68C9
:103C28004122242199547B681B681A687B681B68A9
:103C380001218A431A607B685A687B681B683B4984
:103C48000A401A617B681B689A687B681B68384958
:103C58000A409A607B68DB68012B08D17B689A6808
:103C68007B681B68802109020A439A6007E07B6829
:103C78009A687B681B68842109020A439A607B68FA
:103C8800DB68022B09D17B681B685A687B681B6854
:103C9800802109010A435A6007E07B681B685A685B
:103CA8007B681B6823490A405A607B681B685A680E
:103CB8007B681B6820490A435A607B681B68DA687E
:103CC8007B681B681A490A40DA607B681A697B6856
:103CD8005B691A4311007B689B691A027B681B6841
:103CE8000A43DA607B68D9697B681A6A7B681B6853
:103CF8000A431A607B681B681A687B681B68012185
:103D08000A431A607B6800225A647B68412220219A
:103D180099547B6800221A637B68422200219954D7
:103D280000231800BD4602B080BDC046FFFFFFF06B
:103D3800FF7FFFFFFFF7FFFF0080000290B589B00B
:103D480002AFF8600C00100019000A23FB18221CAF
:103D58001A800823FB18021C1A80BB1D0A1C1A8033
:103D6800FB6841229B5CDBB2202B00D00CE1BB6AD4
:103D7800002B04D02C23FB181B88002B05D1FB68D3
:103D8800802292005A640123FFE0FB6840229B5C7A
:103D9800012B01D10223F8E0FB684022012199544C
:103DA800FEF7B6FE03007B6180231902F8687B6981
:103DB80000931923012200F075F9031E01D0012395
:103DC800E3E0FB68412221219954FB68422240210B
:103DD8009954FB6800225A64FB68BA6A5A62FB6805
:103DE8002C22BA1812885A85FB6800225A63BB1D18
:103DF8001C880823FB181A880A23FB181988F868F6
:103E08007B6901933B6B0093230000F0C5F8031E08
:103E180005D0FB684022002199540123B5E0FB68D6
:103E28005B8D9BB2FF2B11D9FB68FF221A85FB68BB
:103E38001B8DDAB280235C040A23FB181988F86802
:103E480000230093230000F007FB12E0FB685B8D62
:103E58009AB2FB681A85FB681B8DDAB280239C0432
:103E68000A23FB181988F86800230093230000F040
:103E7800F3FA7A69396BFB68180000F06BF9031ED6
:103E880001D0012381E0FB685B6A1A78FB681B6834
:103E98009A62FB685B6A5A1CFB685A62FB685B8D16
:103EA8009BB2013B9AB2FB685A85FB681B8D013BAC
:103EB8009AB2FB681A85FB685B8D9BB2002B3AD0DF
:103EC800FB681B8D002B36D13A6BF8687B69009331
:103ED80013000022802100F0E5F8031E01D0012321
:103EE80053E0FB685B8D9BB2FF2B11D9FB68FF2267
:103EF8001A85FB681B8DDAB280235C040A23FB1841
:103F08001988F86800230093230000F0A5FA12E04E
:103F1800FB685B8D9AB2FB681A85FB681B8DDAB269
:103F280080239C040A23FB181988F868002300934F
:103F3800230000F091FAFB685B8D9BB2002B98D1AF
:103F48007A69396BFB68180000F04AF9031E01D042
:103F580001231AE0FB681B682022DA61FB681B68F2
:103F68005A68FB681B680B490A405A60FB68412283
:103F780020219954FB68422200219954FB68402271
:103F880000219954002300E002231800BD4607B021
:103F980090BDC04600E800FEB0B586B002AFF8603C
:103FA8000C00100019000A257B19221C1A8008230E
:103FB800FB18021C1A80BB1D0A1C1A80BB1D1B881B
:103FC800DAB280235C047B191988F868234B0093C4
:103FD800230000F041FA7A6A396AFB68180000F099
:103FE800B9F8031E01D0012333E0BB1D1B88012B48
:103FF80007D10823FB181B88DAB2FB681B689A6292
:1040080019E00823FB181B881B0A9BB2DAB2FB686D
:104018001B689A627A6A396AFB68180000F09AF895
:10402800031E01D0012314E00823FB181B88DAB211
:10403800FB681B689A623A6AF8687B6A0093130007
:104048000022802100F02EF8031E01D0012300E099
:1040580000231800BD4604B0B0BDC0460020008053
:1040680080B582B000AF78607B681B689B690222CC
:104078001340022B03D17B681B6800229A627B687D
:104088001B689B6901221340012B07D07B681B68C2
:104098009A697B681B6801210A439A61C046BD463C
:1040A80002B080BD80B584B000AFF860B9603B60F5
:1040B800FB1D1A703AE0BA693968FB68180000F00D
:1040C800D3F8031E01D0012340E03B6801332DD013
:1040D800FEF71EFD0200BB69D31A3A689A4202D362
:1040E8003B68002B22D1FB681B689B69BA681340A8
:1040F800BA68D31A5A425341DBB21A00FB1D1B7827
:104108009A4213D1FB685B6C20221A43FB685A64FD
:10411800FB68412220219954FB68422200219954CE
:10412800FB6840220021995401230FE0FB681B68BB
:104138009B69BA681340BA68D31A5A425341DBB232
:104148001A00FB1D1B789A42B5D000231800BD4603
:1041580004B080BD80B584B000AFF860B9607A6003
:1041680032E07A68B968FB68180000F07DF8031E31
:1041780001D0012330E0BB68013325D0FEF7C8FC2D
:1041880002007B68D31ABA689A4202D3BB68002B34
:104198001AD1FB681B689B6902221340022B13D0BB
:1041A800FB685B6C20221A43FB685A64FB68412257
:1041B80020219954FB68422200219954FB6840222F
:1041C80000219954012307E0FB681B689B690222C0
:1041D8001340022BC5D100231800BD4604B080BD92
:1041E80080B584B000AFF860B9607A602FE07A6873
:1041F800B968FB68180000F037F8031E01D00123E6
:104208002DE0FEF785FC02007B68D31ABA689A4253
:1042180002D3BB68002B1AD1FB681B689B6920225C
:104228001340202B13D0FB685B6C20221A43FB68D9
:104238005A64FB68412220219954FB6842220021DC
:104248009954FB68402200219954012307E0FB6838
:104258001B689B6920221340202BC8D1002318001B
:10426800BD4604B080BD000080B58AB000AFF860DC
:10427800B9607A602723FB1800221A70FB681B6854
:104288009B69BB6100233B627B68FB61BB691022B1
:10429800134000D179E0FB681B681022DA6157E00F
:1042A8002722BB18BA1812781A70BB6801334FD08E
:1042B800FEF72EFC0200FB69D31ABA689A4202D3B1
:1042C800BB68002B44D1FB681B685A688023DB015C
:1042D80013407B6113203B18FA684221525C1A7024
:1042E800FB681B689A6980231B021A4080231B0203
:1042F8009A4226D17A698023DB019A4221D03B1861
:104308001B78202B1DD0FB681B685A68FB681B684C
:104318008021C9010A435A60FEF7FAFB0300FB61DA
:104328000FE0FEF7F5FB0200FB69D31A192B08D939
:104338003B6A202213433B622723FB1801221A7091
:1043480006E0FB681B689B6920221340202BE8D1FC
:10435800FB681B689B6920221340202B04D027236D
:10436800FB181B78002B9BD02723FB181B78002BEE
:1043780003D1FB681B682022DA613B6A04221343DD
:104388003B622723FB1801221A70FB681B689B6994
:10439800BB61BA6980235B0013400CD03B6A0122E1
:1043A80013433B62FB681B6880225200DA612723B3
:1043B800FB1801221A70BA698023DB0013400CD065
:1043C8003B6A082213433B62FB681B688022D200C9
:1043D800DA612723FB1801221A70BA6980239B002F
:1043E80013400CD03B6A022213433B62FB681B68F4
:1043F80080229200DA612723FB1801221A702723F2
:10440800FB181B78002B1DD0FB681800FFF728FE4F
:10441800FB681B685A68FB681B680E490A405A60AB
:10442800FB685A6C3B6A1A43FB685A64FB68412272
:1044380020219954FB68422200219954FB684022AC
:10444800002199542723FB181B781800BD460AB091
:1044580080BDC04600E800FE90B587B000AFF860A8
:10446800080011007B600A243B19021C1A800920ED
:104478003B180A1C1A703B191B889B059A0D3B18A0
:104488001B781904FF231B040B401A437B681A434B
:10449800BB6A13435B005B087B61FB681B685B6856
:1044A800BA6A510D8022D2000A4007490A43D24312
:1044B8001A401100FB681B687A690A435A60C046B3
:1044C800BD4607B090BDC046FF63FF0380B582B00C
:1044D80000AF786039607B6841229B5CDBB2202B9F
:1044E80038D17B6840229B5C012B01D1022332E04A
:1044F8007B684022012199547B68412224219954E8
:104508007B681B681A687B681B6801218A431A60EC
:104518007B681B681A687B681B6811490A401A6027
:104528007B681B6819687B681B683A680A431A60CD
:104538007B681B681A687B681B6801210A431A603C
:104548007B684122202199547B684022002199549C
:10455800002300E002231800BD4602B080BDC0461B
:10456800FFEFFFFF80B584B000AF786039607B68EB
:1045780041229B5CDBB2202B39D17B6840229B5CBB
:10458800012B01D1022333E07B6840220121995499
:104598007B684122242199547B681B681A687B68D0
:1045A8001B6801218A431A607B681B681B68FB60D3
:1045B800FB68114A1340FB603B681B02FA6813430F
:1045C800FB607B681B68FA681A607B681B681A685E
:1045D8007B681B6801210A431A607B6841222021FD
:1045E80099547B68402200219954002300E002235B
:1045F8001800BD4604B080BDFFF0FFFF80B584B051
:1046080000AF7860194B1B68194A13401900174B03
:104618007A680A431A607A6880239B009A421FD1FD
:10462800144B1A6813005B009B185B0012491800B2
:10463800FBF77EFD03000133FB6008E0FB68002BFD
:1046480003D0FB68013BFB6001E0032309E0074B53
:104658005A698023DB001A408023DB009A42EDD0A0
:1046680000231800BD4604B080BDC046007000405D
:10467800FFF9FFFF0000002040420F0080B588B01E
:1046880000AF78607B68002B01D10123F3E27B68DF
:104698001B680122134000D17CE0C34B9B68382281
:1046A8001340BB61C04BDB68032213407B61BB69CD
:1046B800102B02D17B69032B02D0BB69082B0BD1CD
:1046C800B94B1A6880239B02134062D07B685B68F1
:1046D800002B5ED10123CEE27B685A6880235B02FF
:1046E8009A4207D1B04B1A68AF4B802149020A435E
:1046F8001A6020E07B685A68A023DB029A420ED138
:10470800A94B1A68A84B8021C9020A431A60A64B14
:104718001A68A54B802149020A431A600BE0A24B94
:104728001A68A14BA1490A401A609F4B1A689E4B10
:104738009F490A401A607B685B68002B14D0FEF71B
:10474800E7F903003B6108E0FEF7E2F902003B6984
:10475800D31A642B01D903238DE2934B1A68802363
:104768009B021340F0D015E0FEF7D2F903003B613D
:1047780008E0FEF7CDF902003B69D31A642B01D992
:10478800032378E2884B1A6880239B021340F0D1F8
:1047980000E0C0467B681B680222134000D199E004
:1047A800814B9B6838221340BB617F4BDB68032237
:1047B80013407B61BB69102B02D17B69022B02D0AD
:1047C800BB69002B35D1784B1A688023DB00134076
:1047D80005D07B68DB68002B01D101234BE2724BCB
:1047E8005B68744A134019007B685B691A026E4B58
:1047F8000A435A60BB69002B12D16B4B1B686E4A87
:10480800134019007B681A69674B0A431A60664BA4
:104818001B68DB0A07221340684ADA40684B1A60B3
:10482800684B1B681800FEF717F9031E51D00123C7
:1048380021E27B68DB68002B30D05B4B1B685E4A4B
:10484800134019007B681A69574B0A431A60564B84
:104858001A68554B802149000A431A60FEF758F937
:1048680003003B6108E0FEF753F902003B69D31AE5
:10487800022B01D90323FEE14B4B1A688023DB008E
:104888001340F0D0484B5B684A4A134019007B68D4
:104898005B691A02444B0A435A601BE0424B1A6890
:1048A800414B49490A401A60FEF732F903003B615F
:1048B80008E0FEF72DF902003B69D31A022B01D953
:1048C8000323D8E1384B1A688023DB001340F0D16A
:1048D80000E0C0467B681B680822134047D0324B73
:1048E8009B6838221340182B0AD12F4B1B6E0222CB
:1048F80013403CD07B689B69002B38D10123BAE177
:104908007B689B69002B19D0274B1A6E264B012117
:104918000A431A66FEF7FCF803003B6108E0FEF75D
:10492800F7F802003B69D31A022B01D90323A2E14D
:104938001D4B1B6E02221340F1D018E01A4B1A6E61
:10494800194B01218A431A66FEF7E2F803003B611E
:1049580008E0FEF7DDF802003B69D31A022B01D903
:10496800032388E1104B1B6E02221340F1D17B68B0
:104978001B680422134000D1C6E01F23FB18002245
:104988001A70094B9B6838221340202B1ED1064B06
:10499800DB6D0222134000D1B6E07B689B68002BD8
:1049A80000D0B1E0012366E100100240FFFFFEFFE6
:1049B800FFFFFBFFFF80FFFFFFC7FFFF0024F4009E
:1049C8000000002004000020FFFEFFFFAC4BDA6B64
:1049D80080235B05134001D1012300E00023002B55
:1049E80011D0A74BDA6BA64B802149050A43DA633D
:1049F800A34BDA6B80235B051340FB60FB681F2326
:104A0800FB1801221A709F4B1A6880235B00134021
:104A18001AD19C4B1A689B4B802149000A431A60A3
:104A2800FEF776F803003B6108E0FEF771F8020034
:104A38003B69D31A022B01D903231CE1914B1A6855
:104A480080235B001340F0D07B689B68012B06D164
:104A58008B4BDA6D8A4B01210A43DA651CE07B68CF
:104A68009B68052B0CD1864BDA6D854B04210A43D4
:104A7800DA65834BDA6D824B01210A43DA650BE074
:104A88007F4BDA6D7E4B01218A43DA657C4BDA6D08
:104A98007B4B04218A43DA657B689B68002B14D022
:104AA800FEF736F803003B6109E0FEF731F8020033
:104AB8003B69D31A744A934201D90323DBE0704B54
:104AC800DB6D02221340F0D013E0FEF721F803005B
:104AD8003B6109E0FEF71CF802003B69D31A6A4AF9
:104AE800934201D90323C6E0654BDB6D02221340D4
:104AF800F0D11F23FB181B78012B05D1604BDA6B13
:104B08005F4B62490A40DA637B68DB69002B00D19E
:104B1800B0E05B4B9B6838221340102B00D178E043
:104B28007B68DB69022B53D1554B1A68544B5849A3
:104B38000A401A60FDF7ECFF03003B6108E0FDF74F
:104B4800E7FF02003B69D31A022B01D9032392E045
:104B58004B4B1A6880239B041340F0D1484BDB6809
:104B68004C4A134019007B681A6A7B685B6A1A43CF
:104B78007B689B6A1B021A437B68DB6A1A437B6863
:104B88001B6B1A433E4B0A43DA603D4B1A683C4B99
:104B9800802149040A431A60394BDA68384B80216E
:104BA80049050A43DA60FDF7B3FF03003B6108E0FB
:104BB800FDF7AEFF02003B69D31A022B01D903238C
:104BC80059E02F4B1A6880239B041340F0D051E022
:104BD8002B4B1A682A4B2E490A401A60FDF798FF9A
:104BE80003003B6108E0FDF793FF02003B69D31A1D
:104BF800022B01D903233EE0214B1A6880239B0432
:104C08001340F0D11E4BDA681D4B23490A40DA6085
:104C180030E07B68DB69012B01D101232BE0184BC5
:104C2800DB687B617B6903221A407B681B6A9A42B6
:104C38001ED17B6970221A407B685B6A9A4217D141
:104C48007A69FE23DB011A407B689B6A1B029A4241
:104C58000ED17A69F8239B031A407B68DB6A9A4273
:104C680006D17B695B0F5A077B681B6B9A4201D0A0
:104C7800012300E000231800BD4608B080BDC046EF
:104C8800001002400070004088130000FFFFFFEF93
:104C9800FFFFFFFE8C80C11FFCFFFEEF80B584B0D4
:104CA80000AF786039607B68002B01D10123E9E00F
:104CB800764B1B68072213403A689A421ED9734BF9
:104CC8001B68072293431900704B3A680A431A601D
:104CD800FDF71EFF0300FB6009E0FDF719FF020066
:104CE800FB68D31A6A4A934201D90323CAE0674B87
:104CF8001B68072213403A689A42EED17B681B680A
:104D08000222134015D07B681B680422134006D08A
:104D1800604B9A685F4BE021C9010A439A605D4B7A
:104D28009B685D4A134019007B689A68594B0A438F
:104D38009A607B681B680122134057D07B685B68C8
:104D4800012B07D1534B1A6880239B0213402BD1A8
:104D5800012397E07B685B68022B07D14D4B1A68EB
:104D680080239B0413401FD101238BE07B685B6881
:104D7800002B07D1474B1A688023DB00134013D15F
:104D880001237FE07B685B68032B06D1414B1B6ED8
:104D98000222134008D1012374E03E4BDB6D02224E
:104DA800134001D101236DE03A4B9B6807229343DE
:104DB80019007B685A68374B0A439A60FDF7A8FECA
:104DC8000300FB6009E0FDF7A3FE0200FB68D31AAD
:104DD8002F4A934201D9032354E02E4B9B68382273
:104DE8001A407B685B68DB009A42ECD1274B1B6852
:104DF800072213403A689A421ED2244B1B680722A6
:104E080093431900214B3A680A431A60FDF780FE64
:104E18000300FB6009E0FDF77BFE0200FB68D31A84
:104E28001B4A934201D903232CE0184B1B68072225
:104E380013403A689A42EED17B681B6804221340FB
:104E480009D0144B9B68154A134019007B68DA682F
:104E5800104B0A439A6000F029F801000D4B9B683B
:104E68001B0A0F221A400E4B9200D3581F221340E0
:104E78000A00DA400B4B1A600B4B1B681800FDF751
:104E8800EBFD03001800BD4604B080BD00200240C1
:104E98008813000000100240FFF0FFFFFF8FFFFFA4
:104EA80068890008000000200400002080B586B052
:104EB80000AF3C4B9B68382213400FD1394B1B681D
:104EC800DB0A0722134001229A4013003B6039682D
:104ED8003548FBF72DF903003B615DE0314B9B68DA
:104EE80038221340082B02D1304B3B6154E02D4B44
:104EF8009B6838221340102B38D12A4BDB680322D9
:104F08001340FB60274BDB681B0907221340013362
:104F1800BB60FB68032B0DD1B9682448FBF708F97F
:104F2800030019001F4BDB681B0A7F2213404B4309
:104F38007B610DE0B9681C48FBF7FAF8030019001B
:104F4800184BDB681B0A7F2213404B437B61C0462A
:104F5800144BDB685B0F0722134001337B607968D1
:104F68007869FBF7E5F803003B6115E00D4B9B689A
:104F780038221340202B03D180231B023B610BE016
:104F8800084B9B6838221340182B03D1FA23DB0106
:104F98003B6101E000233B613B691800BD4606B058
:104FA80080BDC046001002400024F40000127A00C0
:104FB80080B586B000AF78601323FB1800221A7002
:104FC8001223FB1800221A707B681A6880239B0240
:104FD800134000D1A3E011203B1800221A707F4B28
:104FE800DA6B80235B05134010D17C4BDA6B7B4B6B
:104FF800802149050A43DA63784BDA6B80235B0525
:105008001340BB60BB683B1801221A70744B1A68C6
:10501800734B802149000A431A60FDF779FD0300AC
:10502800FB600BE0FDF774FD0200FB68D31A022B4E
:1050380004D91323FB1803221A7005E0684B1A6879
:1050480080235B001340EDD01323FB181B78002B43
:1050580054D1624BDA6DC0239B0013407B617B699E
:10506800002B19D07B685B697A699A4214D05B4B34
:10507800DB6D5C4A13407B61584BDA6D574B8021DE
:1050880049020A43DA65554BDA6D544B56490A40D2
:10509800DA65524B7A69DA657B690122134016D0CA
:1050A800FDF736FD0300FB600CE0FDF731FD020063
:1050B800FB68D31A4D4A934204D91323FB180322E1
:1050C8001A7004E0454BDB6D02221340EDD0132328
:1050D800FB181B78002B0AD1404BDB6D414A13406B
:1050E80019007B685A693D4B0A43DA650CE01223C4
:1050F800FB181322BA1812781A7005E01223FB184D
:105108001322BA1812781A701123FB181B78012B76
:1051180005D1324BDA6B314B35490A40DA637B688B
:105128001B680122134009D02C4B5B6D032293436B
:1051380019007B685A68294B0A435A657B681B68C3
:105148002022134009D0254B5B6D2A4A13401900D1
:105158007B689A68214B0A435A657B681A688023E2
:10516800DB01134015D01D4B5B6D9B0099087B68D4
:105178001A691A4B0A435A657B681A698023DB054A
:105188009A4206D1154BDA68144B802149020A432A
:10519800DA607B681A6880231B01134016D00F4B16
:1051A8005B6D154A134019007B68DA680B4B0A439C
:1051B8005A657B68DA688023DB019A4206D1074B7F
:1051C800DA68064B802149020A43DA601223FB1889
:1051D8001B781800BD4606B080BDC04600100240CE
:1051E80000700040FFFCFFFFFFFFFEFF8813000078
:1051F800FFFFFFEFFFCFFFFFFF3FFFFF80B500AFCF
:10520800C046BD4680BD000080B586B004AF020030
:10521800FB1D1A70084801235B4202930123019386
:10522800FB1D0093012300227821FEF787FDC0466D
:10523800BD4602B080BDC0466002002080B586B081
:1052480004AF786039603B689BB20848012252423B
:10525800029201937B680093012340227821FEF794
:105268006DFDC046BD4602B080BDC046600200204C
:1052780080B500AFFFF7C2FF6420FDF753FC0020A4
:1052880000F00AFA2020FFF7BFFF0020FFF7BCFF5D
:10529800B020FFF7B9FFC820FFF7B6FF0020FFF7DF
:1052A800B3FF1020FFF7B0FF4020FFF7ADFFFF204E
:1052B80000F0DAF9A120FFF7A7FFA620FFF7A4FF67
:1052C800A820FFF7A1FF3F20FFF79EFFA420FFF7CC
:1052D8009BFFD320FFF798FF0020FFF795FFD5200D
:1052E800FFF792FFF020FFF78FFFD920FFF78CFF21
:1052F8002220FFF789FFDA20FFF786FF1220FFF749
:1053080083FFDB20FFF780FF2020FFF77DFF8D2044
:10531800FFF77AFF1420FFF777FF012000F0BCF9B0
:10532800002000F011F800F033F8064B00221A8034
:10533800044B00225A80034B01221A71C046BD4615
:1053480080BDC046FC06002080B584B000AF0200D6
:10535800FB1D1A700023FB600EE0FB1D1B78002B61
:1053680001D1002100E0FF21084AFB68D3180A1C7C
:105378001A70FB680133FB60FA688023DB009A42ED
:10538800EBD3C046C046BD4604B080BDFC02002039
:1053980080B582B000AFFB1D00221A701AE0FB1D19
:1053A8001B78503BDBB21800FFF72EFF0020FFF7F9
:1053B8002BFF1020FFF728FFFB1D1B78DA010A4B93
:1053C800D31880211800FFF739FFFB1D1A78FB1D41
:1053D80001321A70FB1D1B78072BE0D9C046C04666
:1053E800BD4602B080BDC046FC02002090B583B027
:1053F80000AF040008001100FB1D221C1A70BB1D21
:10540800021C1A707B1D0A1C1A70FB1D1B785BB2EC
:10541800002B47DBBB1D1B783F2B43D87B1D1B781C
:10542800012B1ED1FB1D1A78BB1D1B78DB08D8B2D7
:105438000300DB01D3181D4AD35C5AB2BB1D1B788D
:1054480007210B40012199400B005BB2134359B26D
:10545800FB1D1A780300DB01D318C9B2134AD154D3
:1054680021E0FB1D1A78BB1D1B78DB08D8B20300AE
:10547800DB01D3180D4AD35C5BB2BA1D1278072141
:105488000A40012191400A0052B2D24352B213405D
:1054980059B2FB1D1A780300DB01D318C9B2034ABD
:1054A800D15400E0C046BD4603B090BDFC020020C8
:1054B80090B589B000AF0400381D01604260190042
:1054C8000F203B18221C1A700E23FB180A1C1A7096
:1054D8003B181B781F2B03D93B181B787E2B01D94F
:1054E800002377E03D4B1B881A003B1D1B78D3181F
:1054F800802B07DC394B5B881A003B1D5B78D3187F
:10550800402B01DD002365E00023FB6151E03B1DDA
:105518005A680F23FB181B78203B391D49784B43E9
:105528001900FB69CB185B00D3181B887B6100232B
:10553800BB6135E07A69BB699A4080231B0213403E
:1055480014D0264B1B88DAB2BB69DBB2D318D8B2A9
:10555800224B5B88DAB2FB69DBB2D318D9B20E23CF
:10556800FB181B781A00FFF741FF16E01B4B1B883E
:10557800DAB2BB69DBB2D318D8B2184B5B88DAB29F
:10558800FB69DBB2D318D9B20E23FB181B785A4239
:105598005341DBB21A00FFF729FFBB690133BB6136
:1055A8003B1D1B781A00BB699342C3D3FB690133C7
:1055B800FB613B1D5B781A00FB699342A7D3074B3D
:1055C8001B883A1D12789B189AB2044B1A800F2335
:1055D800FB181B781800BD4609B090BDFC060020DA
:1055E80080B584B000AFF860381D016042601A00D1
:1055F800FB1C1A7014E0FB681878FB1C1B783A1D1A
:1056080011685268FFF754FF03001A00FB681B7803
:105618009A4202D0FB681B7808E0FB680133FB6004
:10562800FB681B78002BE6D1FB681B781800BD4689
:1056380004B080BD80B582B000AF0200FB1D1A70B7
:10564800BB1D0A1C1A70FB1D1B789AB2054B1A80E9
:10565800BB1D1B789AB2034B5A80C046BD4602B0A8
:1056680080BDC046FC06002080B584B000AF0200B3
:10567800FB1D1A700F217B1881221A707B181B786A
:105688001800FFF7C1FDFB1D1B781800FFF7BCFDD4
:10569800C046BD4604B080BD80B584B000AF0200EE
:1056A800FB1D1A70FB1D1B78002B07D00F23FB185E
:1056B800AF221A700A4B01225A7106E00F23FB1819
:1056C800AE221A70064B00225A710F23FB181B7862
:1056D8001800FFF799FDC046BD4604B080BDC0461E
:1056E800FC060020F0B51F00002316008BB09F4277
:1056F80004DA802109067B181F002D23129A149DB5
:105708001370202303229D43462D07D02B00453BD1
:1057180059424B411099013ACB18109309AB0493A5
:1057280008AB0393139B00920293109B32000193E2
:105738003B0000F0BBFE0400472D1BD1119BDB078B
:1057480011D5109BC318079300220023300039009D
:10575800FAF774FE002801D0079B09933022099BB1
:1057680007998B4220D32000099B159A1B1B1360B5
:105778000BB0F0BD109BC3180793462DE4D10378F6
:10578800302B0CD10022002330003900FAF756FEE6
:10579800002804D10123109A9B1A139A1360139BB3
:1057A800079A1B68D318CEE7591C09911A70D6E7D7
:1057B800F0B52B2305000C0085B00270002901DA32
:1057C8004C4202336B70092C2CDD02ABDE1D20002D
:1057D8000A21FAF71DFE37003031013E20003170F2
:1057E8000A210194FAF72EFD019B0400632BEEDCDD
:1057F800BA1EA81C010013003034147002AC073420
:105808009C420AD80023A24203D8093302AA9B1853
:10581800DB1BC018401B05B0F0BD1C7801330C70B1
:105828000131EBE73023E418AB70281DEC70F1E789
:10583800F0B597B00D000A921C9C0B93099000F0EC
:1058480013FD036818000D93FAF756FC00230F9018
:1058580014932B7E07220C932B680E930E992368C2
:10586800C90545D59B1893431A00083222600122C6
:105878001E685F687B005B0811931096AE64EF6446
:1058880010981199A74B5242FCF712FC002831D10D
:10589800109811990122A34B5242FAF7DFFD002814
:1058A80028D10022002330003900FAF7CDFD002866
:1058B80003D02B002D2243331A700C9B9A4F472B91
:1058C80000D99A4F032300240E9A2B6101339A437F
:1058D8002A600B9B2900009309980A9B15AA00F0DF
:1058E800E5F9013000D09FE00120404217B0F0BD3B
:1058F8000733B8E732003B0030003900FCF7D8FB2B
:1059080000280BD0002F03DA2B002D2243331A7006
:105918000C9B874F472BD5D9864FD3E720220C9C69
:105928006B6894435A1C46D107336B6080230E9AE8
:10593800DB00134300222B60069214AA05920C9AEE
:105948000AA9049213AA03922322521802920193DD
:105958006B683200009309983B00FFF7C3FE139A67
:105968000700472C2DD1D31C02DB6B689A4248DD17
:105978000C9B1399023BDBB20C9328000C9A01395B
:1059880050301391FFF714FF149A040013182B6179
:10599800012A02DC2A68D20701D501332B612323AF
:1059A8000AAA9B181B78002B00D192E72B002D2206
:1059B80043331A708DE7472CB8D1002BB6D1013389
:1059C800B3E70C9B1100652BD7D90C9B662B1AD11A
:1059D8006B68002A09DD2A61002B02D12968C907F2
:1059E8000BD501339B182B6107E0002B03D1012253
:1059F8002968114200D09A1C2A61139B0024AB65C8
:105A0800CDE767230C931399149B994206DB2B6807
:105A18002961DB07F1D501312961EEE7012200296F
:105A2800E0DC9218521ADDE72A68530508D42B697E
:105A38003A000A9909980B9CA047013029D153E7ED
:105A48000C9B652B00D8DAE0A86CE96C00220023D7
:105A5800FAF7F4FC002833D00123374A0A99099849
:105A68000B9CA047013000D13EE7149E139BB34224
:105A780002DB2B68DB070CD50B9C0F9B0D9A0A9950
:105A88000998A0470024013000D12DE7731EA342D6
:105A98000ADC2B689B0700D505E1159BE86898424E
:105AA80000DB23E7180021E72A0001230A99099857
:105AB8000B9F1A32B847013000D115E70134E5E7EA
:105AC800139B002B3ADC01231B4A0A9909980B9C6B
